:1000000010C02AC029C028C027C026C025C024C0CF
:1000100023C022C021C020C01FC01EC01DC01CC0E4
:100020001BC011241FBECFE5D2E0DEBFCDBF10E064
:10003000A0E6B0E0ECEEF4E002C005900D92AA3626
:10004000B107D9F720E0AAE6B0E001C01D92A638BA
:10005000B207E1F731D248C2D3CF81E081BB20EFB4
:1000600022BB80B390E0E0E7F0E095958795959509
:10007000879595958795959587959183808312BAF5
:1000800011BA82E081BB22BB80B390E09595879541
:100090009595879595958795959587959383828373
:1000A00012BA11BA84E081BB22BB80B390E095956F
:1000B000879595958795959587959595879595833A
:1000C000848312BA11BA88E081BB22BB80B390E06E
:1000D0009595879595958795959587959595879508
:1000E0009783868312BA11BA089580917000909117
:1000F00071008B30910581F124F4079709F43FC01A
:1001000041C08D309105A9F00E97E1F580917A00FC
:1001100090917B00FC01EE0FFF1FE458FF4F21E0A0
:1001200030E031832083019690937B0080937A00A6
:10013000089580917A0090917B00FC01EE0FFF1FE3
:10014000E458FF4F24E030E0318320830196909300
:100150007B0080937A00089580917A0090917B00D3
:10016000FC01EE0FFF1FE458FF4F27E030E0318322
:100170002083019690937B0080937A00089584E019
:100180008BBB089584E08BBB0895809172009091A1
:1001900073008B30910589F124F4079709F440C06E
:1001A00050C08D309105B1F00E9709F04AC0809192
:1001B0007A0090917B00FC01EE0FFF1FE458FF4F87
:1001C00022E030E031832083019690937B0080937E
:1001D0007A00089580917A0090917B00FC01EE0FE7
:1001E000FF1FE458FF4F25E030E031832083019664
:1001F00090937B0080937A00089580917A0090918B
:100200007B00FC01EE0FFF1FE458FF4F28E030E0B9
:1002100031832083019690937B0080937A00089528
:1002200080917A0090917B00FC01EE0FFF1FE45853
:10023000FF4F11821082019690937B0080937A0089
:10024000089584E08BBB08958091740090917500AF
:100250008B30910581F124F4079709F43FC041C028
:100260008D309105A9F00E97E1F580917A0090917B
:100270007B00FC01EE0FFF1FE458FF4F23E030E04E
:1002800031832083019690937B0080937A000895B8
:1002900080917A0090917B00FC01EE0FFF1FE458E3
:1002A000FF4F26E030E031832083019690937B005E
:1002B00080937A00089580917A0090917B00FC01F0
:1002C000EE0FFF1FE458FF4F29E030E03183208319
:1002D000019690937B0080937A00089584E08BBB15
:1002E000089584E08BBB0895ECE7F0E01182108262
:1002F00013821282158214821782168210927B005A
:1003000010927A0010926D0010926C00E0E7F0E01D
:100310008FE090E0918380839383828395838483AD
:10032000089520917C0030917D0080916000909133
:1003300061002817390719F480E090E002C081E0DD
:1003400090E040917E0050917F00209162003091BA
:1003500063004217530709F00196409180005091C5
:10036000810020916400309165004217530709F025
:100370000196409182005091830020916600309157
:1003800067004217530709F00196892BA9F488E00A
:100390008BBB8FEF87B9A8DF2FE382E49FE021506A
:1003A00080409040E1F700C000001BBA17B81092DF
:1003B0007B0010927A00089597DF88E08BBB8FE472
:1003C00093EC0197F1F700C0000084E08BBB8FE451
:1003D00093EC0197F1F700C0000082E08BBB8FE443
:1003E00093EC0197F1F700C0000081E08BBB8FE434
:1003F00093EC0197F1F700C0000010927B0010927F
:100400007A00089582E08BBB80916C0090916D0022
:100410008130910581F082309105C1F0892B01F581
:1004200064DE2FE38DE093E0215080409040E1F7BF
:1004300000C0000015C0A9DE2FE38DE093E021503D
:1004400080409040E1F700C000000AC0FDDE2FE3CD
:100450008DE093E0215080409040E1F700C0000023
:1004600080917A0090917B0004970CF05ADF0895F8
:1004700010926D0010926C0017C0880F991FFC013C
:10048000E059FF4F808191810F9761F481E08BBB30
:1004900080916C0090916D00019690936D00809317
:1004A0006C0002C0AFDF089580916C0090916D00E8
:1004B0008330910514F308958FEF84BB8ABB86B90E
:1004C00017B810926D0010926C0010927B00109281
:1004D0007A0010926F0010926E0010926B001092D2
:0C04E0006A00BBDDC5DFFDCFF894FFCF44
:0A04EC0001000200030004000000FC
:00000001FF
